{
  "contractName": "HMNFT",
  "abi": [
    {
      "inputs": [
        {
          "internalType": "string",
          "name": "name",
          "type": "string"
        },
        {
          "internalType": "string",
          "name": "symbol",
          "type": "string"
        }
      ],
      "stateMutability": "nonpayable",
      "type": "constructor"
    },
    {
      "anonymous": false,
      "inputs": [
        {
          "indexed": true,
          "internalType": "address",
          "name": "owner",
          "type": "address"
        },
        {
          "indexed": true,
          "internalType": "address",
          "name": "approved",
          "type": "address"
        },
        {
          "indexed": true,
          "internalType": "uint256",
          "name": "tokenId",
          "type": "uint256"
        }
      ],
      "name": "Approval",
      "type": "event"
    },
    {
      "anonymous": false,
      "inputs": [
        {
          "indexed": true,
          "internalType": "address",
          "name": "owner",
          "type": "address"
        },
        {
          "indexed": true,
          "internalType": "address",
          "name": "operator",
          "type": "address"
        },
        {
          "indexed": false,
          "internalType": "bool",
          "name": "approved",
          "type": "bool"
        }
      ],
      "name": "ApprovalForAll",
      "type": "event"
    },
    {
      "anonymous": false,
      "inputs": [
        {
          "indexed": true,
          "internalType": "address",
          "name": "from",
          "type": "address"
        },
        {
          "indexed": true,
          "internalType": "address",
          "name": "to",
          "type": "address"
        },
        {
          "indexed": true,
          "internalType": "uint256",
          "name": "tokenId",
          "type": "uint256"
        }
      ],
      "name": "Transfer",
      "type": "event"
    },
    {
      "inputs": [
        {
          "internalType": "address",
          "name": "to",
          "type": "address"
        },
        {
          "internalType": "uint256",
          "name": "tokenId",
          "type": "uint256"
        }
      ],
      "name": "approve",
      "outputs": [],
      "stateMutability": "nonpayable",
      "type": "function"
    },
    {
      "inputs": [
        {
          "internalType": "address",
          "name": "owner",
          "type": "address"
        }
      ],
      "name": "balanceOf",
      "outputs": [
        {
          "internalType": "uint256",
          "name": "",
          "type": "uint256"
        }
      ],
      "stateMutability": "view",
      "type": "function"
    },
    {
      "inputs": [
        {
          "internalType": "uint256",
          "name": "tokenId",
          "type": "uint256"
        }
      ],
      "name": "getApproved",
      "outputs": [
        {
          "internalType": "address",
          "name": "",
          "type": "address"
        }
      ],
      "stateMutability": "view",
      "type": "function"
    },
    {
      "inputs": [
        {
          "internalType": "address",
          "name": "owner",
          "type": "address"
        },
        {
          "internalType": "address",
          "name": "operator",
          "type": "address"
        }
      ],
      "name": "isApprovedForAll",
      "outputs": [
        {
          "internalType": "bool",
          "name": "",
          "type": "bool"
        }
      ],
      "stateMutability": "view",
      "type": "function"
    },
    {
      "inputs": [],
      "name": "name",
      "outputs": [
        {
          "internalType": "string",
          "name": "",
          "type": "string"
        }
      ],
      "stateMutability": "view",
      "type": "function"
    },
    {
      "inputs": [
        {
          "internalType": "uint256",
          "name": "tokenId",
          "type": "uint256"
        }
      ],
      "name": "ownerOf",
      "outputs": [
        {
          "internalType": "address",
          "name": "",
          "type": "address"
        }
      ],
      "stateMutability": "view",
      "type": "function"
    },
    {
      "inputs": [
        {
          "internalType": "address",
          "name": "from",
          "type": "address"
        },
        {
          "internalType": "address",
          "name": "to",
          "type": "address"
        },
        {
          "internalType": "uint256",
          "name": "tokenId",
          "type": "uint256"
        }
      ],
      "name": "safeTransferFrom",
      "outputs": [],
      "stateMutability": "nonpayable",
      "type": "function"
    },
    {
      "inputs": [
        {
          "internalType": "address",
          "name": "from",
          "type": "address"
        },
        {
          "internalType": "address",
          "name": "to",
          "type": "address"
        },
        {
          "internalType": "uint256",
          "name": "tokenId",
          "type": "uint256"
        },
        {
          "internalType": "bytes",
          "name": "_data",
          "type": "bytes"
        }
      ],
      "name": "safeTransferFrom",
      "outputs": [],
      "stateMutability": "nonpayable",
      "type": "function"
    },
    {
      "inputs": [
        {
          "internalType": "address",
          "name": "operator",
          "type": "address"
        },
        {
          "internalType": "bool",
          "name": "approved",
          "type": "bool"
        }
      ],
      "name": "setApprovalForAll",
      "outputs": [],
      "stateMutability": "nonpayable",
      "type": "function"
    },
    {
      "inputs": [
        {
          "internalType": "bytes4",
          "name": "interfaceId",
          "type": "bytes4"
        }
      ],
      "name": "supportsInterface",
      "outputs": [
        {
          "internalType": "bool",
          "name": "",
          "type": "bool"
        }
      ],
      "stateMutability": "view",
      "type": "function"
    },
    {
      "inputs": [],
      "name": "symbol",
      "outputs": [
        {
          "internalType": "string",
          "name": "",
          "type": "string"
        }
      ],
      "stateMutability": "view",
      "type": "function"
    },
    {
      "inputs": [
        {
          "internalType": "uint256",
          "name": "tokenId",
          "type": "uint256"
        }
      ],
      "name": "tokenURI",
      "outputs": [
        {
          "internalType": "string",
          "name": "",
          "type": "string"
        }
      ],
      "stateMutability": "view",
      "type": "function"
    },
    {
      "inputs": [
        {
          "internalType": "address",
          "name": "from",
          "type": "address"
        },
        {
          "internalType": "address",
          "name": "to",
          "type": "address"
        },
        {
          "internalType": "uint256",
          "name": "tokenId",
          "type": "uint256"
        }
      ],
      "name": "transferFrom",
      "outputs": [],
      "stateMutability": "nonpayable",
      "type": "function"
    },
    {
      "inputs": [
        {
          "internalType": "string",
          "name": "name",
          "type": "string"
        },
        {
          "internalType": "uint256",
          "name": "price",
          "type": "uint256"
        }
      ],
      "name": "mint",
      "outputs": [],
      "stateMutability": "nonpayable",
      "type": "function"
    },
    {
      "inputs": [
        {
          "internalType": "uint256",
          "name": "_tokenId",
          "type": "uint256"
        }
      ],
      "name": "getItem",
      "outputs": [
        {
          "internalType": "string",
          "name": "name",
          "type": "string"
        },
        {
          "internalType": "address",
          "name": "minter",
          "type": "address"
        },
        {
          "internalType": "address",
          "name": "owner",
          "type": "address"
        },
        {
          "internalType": "uint256",
          "name": "price",
          "type": "uint256"
        },
        {
          "internalType": "bool",
          "name": "forSale",
          "type": "bool"
        }
      ],
      "stateMutability": "view",
      "type": "function"
    },
    {
      "inputs": [
        {
          "internalType": "uint256",
          "name": "_tokenId",
          "type": "uint256"
        }
      ],
      "name": "tokenAvailable",
      "outputs": [
        {
          "internalType": "bool",
          "name": "",
          "type": "bool"
        }
      ],
      "stateMutability": "view",
      "type": "function"
    },
    {
      "inputs": [
        {
          "internalType": "uint256",
          "name": "_tokenId",
          "type": "uint256"
        }
      ],
      "name": "buy",
      "outputs": [],
      "stateMutability": "payable",
      "type": "function"
    },
    {
      "inputs": [
        {
          "internalType": "uint256",
          "name": "_tokenId",
          "type": "uint256"
        },
        {
          "internalType": "uint256",
          "name": "price",
          "type": "uint256"
        }
      ],
      "name": "changePrice",
      "outputs": [],
      "stateMutability": "nonpayable",
      "type": "function"
    },
    {
      "inputs": [
        {
          "internalType": "uint256",
          "name": "_tokenId",
          "type": "uint256"
        }
      ],
      "name": "toggleForSale",
      "outputs": [],
      "stateMutability": "nonpayable",
      "type": "function"
    }
  ],
  "bytecode": "0x60806040523480156200001157600080fd5b5060405162003d2c38038062003d2c8339818101604052810190620000379190620002dc565b81818160009080519060200190620000519291906200008f565b5080600190805190602001906200006a9291906200008f565b5050506006600081548092919062000082906200039a565b919050555050506200044d565b8280546200009d9062000417565b90600052602060002090601f016020900481019282620000c157600085556200010d565b82601f10620000dc57805160ff19168380011785556200010d565b828001600101855582156200010d579182015b828111156200010c578251825591602001919060010190620000ef565b5b5090506200011c919062000120565b5090565b5b808211156200013b57600081600090555060010162000121565b5090565b6000604051905090565b600080fd5b600080fd5b600080fd5b600080fd5b6000601f19601f8301169050919050565b7f4e487b7100000000000000000000000000000000000000000000000000000000600052604160045260246000fd5b620001a8826200015d565b810181811067ffffffffffffffff82111715620001ca57620001c96200016e565b5b80604052505050565b6000620001df6200013f565b9050620001ed82826200019d565b919050565b600067ffffffffffffffff82111562000210576200020f6200016e565b5b6200021b826200015d565b9050602081019050919050565b60005b83811015620002485780820151818401526020810190506200022b565b8381111562000258576000848401525b50505050565b6000620002756200026f84620001f2565b620001d3565b90508281526020810184848401111562000294576200029362000158565b5b620002a184828562000228565b509392505050565b600082601f830112620002c157620002c062000153565b5b8151620002d38482602086016200025e565b91505092915050565b60008060408385031215620002f657620002f562000149565b5b600083015167ffffffffffffffff8111156200031757620003166200014e565b5b6200032585828601620002a9565b925050602083015167ffffffffffffffff8111156200034957620003486200014e565b5b6200035785828601620002a9565b9150509250929050565b7f4e487b7100000000000000000000000000000000000000000000000000000000600052601160045260246000fd5b6000819050919050565b6000620003a78262000390565b91507fffffffffffffffffffffffffffffffffffffffffffffffffffffffffffffffff821415620003dd57620003dc62000361565b5b600182019050919050565b7f4e487b7100000000000000000000000000000000000000000000000000000000600052602260045260246000fd5b600060028204905060018216806200043057607f821691505b60208210811415620004475762000446620003e8565b5b50919050565b6138cf806200045d6000396000f3fe6080604052600436106101145760003560e01c806370a08231116100a0578063b88d4fde11610064578063b88d4fde146103c3578063c87b56dd146103ec578063d96a094a14610429578063e985e9c514610445578063e9974fb01461048257610114565b806370a08231146102e057806395d89b411461031d578063a22cb46514610348578063a32018b914610371578063b3de019c1461039a57610114565b8063095ea7b3116100e7578063095ea7b3146101e757806323b872dd146102105780633129e7731461023957806342842e0e1461027a5780636352211e146102a357610114565b806301ffc9a714610119578063056b01ce1461015657806306fdde031461017f578063081812fc146101aa575b600080fd5b34801561012557600080fd5b50610140600480360381019061013b91906126bb565b6104bf565b60405161014d9190612703565b60405180910390f35b34801561016257600080fd5b5061017d6004803603810190610178919061289a565b6105a1565b005b34801561018b57600080fd5b5061019461075b565b6040516101a1919061297e565b60405180910390f35b3480156101b657600080fd5b506101d160048036038101906101cc91906129a0565b6107ed565b6040516101de9190612a0e565b60405180910390f35b3480156101f357600080fd5b5061020e60048036038101906102099190612a55565b610872565b005b34801561021c57600080fd5b5061023760048036038101906102329190612a95565b61098a565b005b34801561024557600080fd5b50610260600480360381019061025b91906129a0565b6109ea565b604051610271959493929190612af7565b60405180910390f35b34801561028657600080fd5b506102a1600480360381019061029c9190612a95565b610bf2565b005b3480156102af57600080fd5b506102ca60048036038101906102c591906129a0565b610c12565b6040516102d79190612a0e565b60405180910390f35b3480156102ec57600080fd5b5061030760048036038101906103029190612b51565b610cc4565b6040516103149190612b7e565b60405180910390f35b34801561032957600080fd5b50610332610d7c565b60405161033f919061297e565b60405180910390f35b34801561035457600080fd5b5061036f600480360381019061036a9190612bc5565b610e0e565b005b34801561037d57600080fd5b50610398600480360381019061039391906129a0565b610f8f565b005b3480156103a657600080fd5b506103c160048036038101906103bc9190612c05565b6112a7565b005b3480156103cf57600080fd5b506103ea60048036038101906103e59190612ce6565b6115b5565b005b3480156103f857600080fd5b50610413600480360381019061040e91906129a0565b611617565b604051610420919061297e565b60405180910390f35b610443600480360381019061043e91906129a0565b6116be565b005b34801561045157600080fd5b5061046c60048036038101906104679190612d69565b611a6b565b6040516104799190612703565b60405180910390f35b34801561048e57600080fd5b506104a960048036038101906104a491906129a0565b611aff565b6040516104b69190612703565b60405180910390f35b60007f80ac58cd000000000000000000000000000000000000000000000000000000007bffffffffffffffffffffffffffffffffffffffffffffffffffffffff1916827bffffffffffffffffffffffffffffffffffffffffffffffffffffffff1916148061058a57507f5b5e139f000000000000000000000000000000000000000000000000000000007bffffffffffffffffffffffffffffffffffffffffffffffffffffffff1916827bffffffffffffffffffffffffffffffffffffffffffffffffffffffff1916145b8061059a575061059982611b11565b5b9050919050565b600073ffffffffffffffffffffffffffffffffffffffff163373ffffffffffffffffffffffffffffffffffffffff1614156105db57600080fd5b6105e6600654611b7b565b156105f057600080fd5b6105fc33600654611be7565b6040518060a001604052808381526020013373ffffffffffffffffffffffffffffffffffffffff1681526020013373ffffffffffffffffffffffffffffffffffffffff1681526020018281526020016000151581525060076000600654815260200190815260200160002060008201518160000190805190602001906106839291906125ac565b5060208201518160010160006101000a81548173ffffffffffffffffffffffffffffffffffffffff021916908373ffffffffffffffffffffffffffffffffffffffff16021790555060408201518160020160006101000a81548173ffffffffffffffffffffffffffffffffffffffff021916908373ffffffffffffffffffffffffffffffffffffffff1602179055506060820151816003015560808201518160040160006101000a81548160ff0219169083151502179055509050506006600081548092919061075290612dd8565b91905055505050565b60606000805461076a90612e50565b80601f016020809104026020016040519081016040528092919081815260200182805461079690612e50565b80156107e35780601f106107b8576101008083540402835291602001916107e3565b820191906000526020600020905b8154815290600101906020018083116107c657829003601f168201915b5050505050905090565b60006107f882611b7b565b610837576040517f08c379a000000000000000000000000000000000000000000000000000000000815260040161082e90612ef4565b60405180910390fd5b6004600083815260200190815260200160002060009054906101000a900473ffffffffffffffffffffffffffffffffffffffff169050919050565b600061087d82610c12565b90508073ffffffffffffffffffffffffffffffffffffffff168373ffffffffffffffffffffffffffffffffffffffff1614156108ee576040517f08c379a00000000000000000000000000000000000000000000000000000000081526004016108e590612f86565b60405180910390fd5b8073ffffffffffffffffffffffffffffffffffffffff1661090d611c05565b73ffffffffffffffffffffffffffffffffffffffff16148061093c575061093b81610936611c05565b611a6b565b5b61097b576040517f08c379a000000000000000000000000000000000000000000000000000000000815260040161097290613018565b60405180910390fd5b6109858383611c0d565b505050565b61099b610995611c05565b82611cc6565b6109da576040517f08c379a00000000000000000000000000000000000000000000000000000000081526004016109d1906130aa565b60405180910390fd5b6109e5838383611da4565b505050565b606060008060008085600073ffffffffffffffffffffffffffffffffffffffff163373ffffffffffffffffffffffffffffffffffffffff161415610a2d57600080fd5b610a3681611b7b565b610a3f57600080fd5b6000600760008981526020019081526020016000206040518060a0016040529081600082018054610a6f90612e50565b80601f0160208091040260200160405190810160405280929190818152602001828054610a9b90612e50565b8015610ae85780601f10610abd57610100808354040283529160200191610ae8565b820191906000526020600020905b815481529060010190602001808311610acb57829003601f168201915b505050505081526020016001820160009054906101000a900473ffffffffffffffffffffffffffffffffffffffff1673ffffffffffffffffffffffffffffffffffffffff1673ffffffffffffffffffffffffffffffffffffffff1681526020016002820160009054906101000a900473ffffffffffffffffffffffffffffffffffffffff1673ffffffffffffffffffffffffffffffffffffffff1673ffffffffffffffffffffffffffffffffffffffff168152602001600382015481526020016004820160009054906101000a900460ff16151515158152505090508060000151965080602001519550806040015194508060600151935080608001519250505091939590929450565b610c0d838383604051806020016040528060008152506115b5565b505050565b6000806002600084815260200190815260200160002060009054906101000a900473ffffffffffffffffffffffffffffffffffffffff169050600073ffffffffffffffffffffffffffffffffffffffff168173ffffffffffffffffffffffffffffffffffffffff161415610cbb576040517f08c379a0000000000000000000000000000000000000000000000000000000008152600401610cb29061313c565b60405180910390fd5b80915050919050565b60008073ffffffffffffffffffffffffffffffffffffffff168273ffffffffffffffffffffffffffffffffffffffff161415610d35576040517f08c379a0000000000000000000000000000000000000000000000000000000008152600401610d2c906131ce565b60405180910390fd5b600360008373ffffffffffffffffffffffffffffffffffffffff1673ffffffffffffffffffffffffffffffffffffffff168152602001908152602001600020549050919050565b606060018054610d8b90612e50565b80601f0160208091040260200160405190810160405280929190818152602001828054610db790612e50565b8015610e045780601f10610dd957610100808354040283529160200191610e04565b820191906000526020600020905b815481529060010190602001808311610de757829003601f168201915b5050505050905090565b610e16611c05565b73ffffffffffffffffffffffffffffffffffffffff168273ffffffffffffffffffffffffffffffffffffffff161415610e84576040517f08c379a0000000000000000000000000000000000000000000000000000000008152600401610e7b9061323a565b60405180910390fd5b8060056000610e91611c05565b73ffffffffffffffffffffffffffffffffffffffff1673ffffffffffffffffffffffffffffffffffffffff16815260200190815260200160002060008473ffffffffffffffffffffffffffffffffffffffff1673ffffffffffffffffffffffffffffffffffffffff16815260200190815260200160002060006101000a81548160ff0219169083151502179055508173ffffffffffffffffffffffffffffffffffffffff16610f3e611c05565b73ffffffffffffffffffffffffffffffffffffffff167f17307eab39ab6107e8899845ad3d59bd9653f200f220920489ca2b5937696c3183604051610f839190612703565b60405180910390a35050565b80600073ffffffffffffffffffffffffffffffffffffffff163373ffffffffffffffffffffffffffffffffffffffff161415610fca57600080fd5b610fd381611b7b565b610fdc57600080fd5b610fe582610c12565b73ffffffffffffffffffffffffffffffffffffffff163373ffffffffffffffffffffffffffffffffffffffff161461101c57600080fd5b6000600760008481526020019081526020016000206040518060a001604052908160008201805461104c90612e50565b80601f016020809104026020016040519081016040528092919081815260200182805461107890612e50565b80156110c55780601f1061109a576101008083540402835291602001916110c5565b820191906000526020600020905b8154815290600101906020018083116110a857829003601f168201915b505050505081526020016001820160009054906101000a900473ffffffffffffffffffffffffffffffffffffffff1673ffffffffffffffffffffffffffffffffffffffff1673ffffffffffffffffffffffffffffffffffffffff1681526020016002820160009054906101000a900473ffffffffffffffffffffffffffffffffffffffff1673ffffffffffffffffffffffffffffffffffffffff1673ffffffffffffffffffffffffffffffffffffffff168152602001600382015481526020016004820160009054906101000a900460ff1615151515815250509050806080015115816080019015159081151581525050806007600085815260200190815260200160002060008201518160000190805190602001906111e69291906125ac565b5060208201518160010160006101000a81548173ffffffffffffffffffffffffffffffffffffffff021916908373ffffffffffffffffffffffffffffffffffffffff16021790555060408201518160020160006101000a81548173ffffffffffffffffffffffffffffffffffffffff021916908373ffffffffffffffffffffffffffffffffffffffff1602179055506060820151816003015560808201518160040160006101000a81548160ff021916908315150217905550905050505050565b81600073ffffffffffffffffffffffffffffffffffffffff163373ffffffffffffffffffffffffffffffffffffffff1614156112e257600080fd5b6112eb81611b7b565b6112f457600080fd5b6112fd83610c12565b73ffffffffffffffffffffffffffffffffffffffff163373ffffffffffffffffffffffffffffffffffffffff161461133457600080fd5b6000600760008581526020019081526020016000206040518060a001604052908160008201805461136490612e50565b80601f016020809104026020016040519081016040528092919081815260200182805461139090612e50565b80156113dd5780601f106113b2576101008083540402835291602001916113dd565b820191906000526020600020905b8154815290600101906020018083116113c057829003601f168201915b505050505081526020016001820160009054906101000a900473ffffffffffffffffffffffffffffffffffffffff1673ffffffffffffffffffffffffffffffffffffffff1673ffffffffffffffffffffffffffffffffffffffff1681526020016002820160009054906101000a900473ffffffffffffffffffffffffffffffffffffffff1673ffffffffffffffffffffffffffffffffffffffff1673ffffffffffffffffffffffffffffffffffffffff168152602001600382015481526020016004820160009054906101000a900460ff161515151581525050905082816060018181525050806007600086815260200190815260200160002060008201518160000190805190602001906114f39291906125ac565b5060208201518160010160006101000a81548173ffffffffffffffffffffffffffffffffffffffff021916908373ffffffffffffffffffffffffffffffffffffffff16021790555060408201518160020160006101000a81548173ffffffffffffffffffffffffffffffffffffffff021916908373ffffffffffffffffffffffffffffffffffffffff1602179055506060820151816003015560808201518160040160006101000a81548160ff02191690831515021790555090505050505050565b6115c66115c0611c05565b83611cc6565b611605576040517f08c379a00000000000000000000000000000000000000000000000000000000081526004016115fc906130aa565b60405180910390fd5b61161184848484612000565b50505050565b606061162282611b7b565b611661576040517f08c379a0000000000000000000000000000000000000000000000000000000008152600401611658906132cc565b60405180910390fd5b600061166b61205c565b9050600081511161168b57604051806020016040528060008152506116b6565b8061169584612073565b6040516020016116a6929190613328565b6040516020818303038152906040525b915050919050565b80600073ffffffffffffffffffffffffffffffffffffffff163373ffffffffffffffffffffffffffffffffffffffff1614156116f957600080fd5b61170281611b7b565b61170b57600080fd5b3373ffffffffffffffffffffffffffffffffffffffff1661172b83610c12565b73ffffffffffffffffffffffffffffffffffffffff16141561174c57600080fd5b6000600760008481526020019081526020016000206040518060a001604052908160008201805461177c90612e50565b80601f01602080910402602001604051908101604052809291908181526020018280546117a890612e50565b80156117f55780601f106117ca576101008083540402835291602001916117f5565b820191906000526020600020905b8154815290600101906020018083116117d857829003601f168201915b505050505081526020016001820160009054906101000a900473ffffffffffffffffffffffffffffffffffffffff1673ffffffffffffffffffffffffffffffffffffffff1673ffffffffffffffffffffffffffffffffffffffff1681526020016002820160009054906101000a900473ffffffffffffffffffffffffffffffffffffffff1673ffffffffffffffffffffffffffffffffffffffff1673ffffffffffffffffffffffffffffffffffffffff168152602001600382015481526020016004820160009054906101000a900460ff161515151581525050905080606001513410156118e257600080fd5b6118f181604001513385611da4565b6000816040015190508073ffffffffffffffffffffffffffffffffffffffff166108fc349081150290604051600060405180830381858888f19350505050158015611940573d6000803e3d6000fd5b5033826040019073ffffffffffffffffffffffffffffffffffffffff16908173ffffffffffffffffffffffffffffffffffffffff1681525050816007600086815260200190815260200160002060008201518160000190805190602001906119a99291906125ac565b5060208201518160010160006101000a81548173ffffffffffffffffffffffffffffffffffffffff021916908373ffffffffffffffffffffffffffffffffffffffff16021790555060408201518160020160006101000a81548173ffffffffffffffffffffffffffffffffffffffff021916908373ffffffffffffffffffffffffffffffffffffffff1602179055506060820151816003015560808201518160040160006101000a81548160ff02191690831515021790555090505050505050565b6000600560008473ffffffffffffffffffffffffffffffffffffffff1673ffffffffffffffffffffffffffffffffffffffff16815260200190815260200160002060008373ffffffffffffffffffffffffffffffffffffffff1673ffffffffffffffffffffffffffffffffffffffff16815260200190815260200160002060009054906101000a900460ff16905092915050565b6000611b0a82611b7b565b9050919050565b60007f01ffc9a7000000000000000000000000000000000000000000000000000000007bffffffffffffffffffffffffffffffffffffffffffffffffffffffff1916827bffffffffffffffffffffffffffffffffffffffffffffffffffffffff1916149050919050565b60008073ffffffffffffffffffffffffffffffffffffffff166002600084815260200190815260200160002060009054906101000a900473ffffffffffffffffffffffffffffffffffffffff1673ffffffffffffffffffffffffffffffffffffffff1614159050919050565b611c018282604051806020016040528060008152506121d4565b5050565b600033905090565b816004600083815260200190815260200160002060006101000a81548173ffffffffffffffffffffffffffffffffffffffff021916908373ffffffffffffffffffffffffffffffffffffffff160217905550808273ffffffffffffffffffffffffffffffffffffffff16611c8083610c12565b73ffffffffffffffffffffffffffffffffffffffff167f8c5be1e5ebec7d5bd14f71427d1e84f3dd0314c0f7b2291e5b200ac8c7c3b92560405160405180910390a45050565b6000611cd182611b7b565b611d10576040517f08c379a0000000000000000000000000000000000000000000000000000000008152600401611d07906133be565b60405180910390fd5b6000611d1b83610c12565b90508073ffffffffffffffffffffffffffffffffffffffff168473ffffffffffffffffffffffffffffffffffffffff161480611d8a57508373ffffffffffffffffffffffffffffffffffffffff16611d72846107ed565b73ffffffffffffffffffffffffffffffffffffffff16145b80611d9b5750611d9a8185611a6b565b5b91505092915050565b8273ffffffffffffffffffffffffffffffffffffffff16611dc482610c12565b73ffffffffffffffffffffffffffffffffffffffff1614611e1a576040517f08c379a0000000000000000000000000000000000000000000000000000000008152600401611e1190613450565b60405180910390fd5b600073ffffffffffffffffffffffffffffffffffffffff168273ffffffffffffffffffffffffffffffffffffffff161415611e8a576040517f08c379a0000000000000000000000000000000000000000000000000000000008152600401611e81906134e2565b60405180910390fd5b611e9583838361222f565b611ea0600082611c0d565b6001600360008573ffffffffffffffffffffffffffffffffffffffff1673ffffffffffffffffffffffffffffffffffffffff1681526020019081526020016000206000828254611ef09190613502565b925050819055506001600360008473ffffffffffffffffffffffffffffffffffffffff1673ffffffffffffffffffffffffffffffffffffffff1681526020019081526020016000206000828254611f479190613536565b92505081905550816002600083815260200190815260200160002060006101000a81548173ffffffffffffffffffffffffffffffffffffffff021916908373ffffffffffffffffffffffffffffffffffffffff160217905550808273ffffffffffffffffffffffffffffffffffffffff168473ffffffffffffffffffffffffffffffffffffffff167fddf252ad1be2c89b69c2b068fc378daa952ba7f163c4a11628f55a4df523b3ef60405160405180910390a4505050565b61200b848484611da4565b61201784848484612234565b612056576040517f08c379a000000000000000000000000000000000000000000000000000000000815260040161204d906135fe565b60405180910390fd5b50505050565b606060405180602001604052806000815250905090565b606060008214156120bb576040518060400160405280600181526020017f300000000000000000000000000000000000000000000000000000000000000081525090506121cf565b600082905060005b600082146120ed5780806120d690612dd8565b915050600a826120e6919061364d565b91506120c3565b60008167ffffffffffffffff81111561210957612108612739565b5b6040519080825280601f01601f19166020018201604052801561213b5781602001600182028036833780820191505090505b5090505b600085146121c8576001826121549190613502565b9150600a85612163919061367e565b603061216f9190613536565b60f81b818381518110612185576121846136af565b5b60200101907effffffffffffffffffffffffffffffffffffffffffffffffffffffffffffff1916908160001a905350600a856121c1919061364d565b945061213f565b8093505050505b919050565b6121de83836123cb565b6121eb6000848484612234565b61222a576040517f08c379a0000000000000000000000000000000000000000000000000000000008152600401612221906135fe565b60405180910390fd5b505050565b505050565b60006122558473ffffffffffffffffffffffffffffffffffffffff16612599565b156123be578373ffffffffffffffffffffffffffffffffffffffff1663150b7a0261227e611c05565b8786866040518563ffffffff1660e01b81526004016122a09493929190613733565b602060405180830381600087803b1580156122ba57600080fd5b505af19250505080156122eb57506040513d601f19601f820116820180604052508101906122e89190613794565b60015b61236e573d806000811461231b576040519150601f19603f3d011682016040523d82523d6000602084013e612320565b606091505b50600081511415612366576040517f08c379a000000000000000000000000000000000000000000000000000000000815260040161235d906135fe565b60405180910390fd5b805181602001fd5b63150b7a0260e01b7bffffffffffffffffffffffffffffffffffffffffffffffffffffffff1916817bffffffffffffffffffffffffffffffffffffffffffffffffffffffff1916149150506123c3565b600190505b949350505050565b600073ffffffffffffffffffffffffffffffffffffffff168273ffffffffffffffffffffffffffffffffffffffff16141561243b576040517f08c379a00000000000000000000000000000000000000000000000000000000081526004016124329061380d565b60405180910390fd5b61244481611b7b565b15612484576040517f08c379a000000000000000000000000000000000000000000000000000000000815260040161247b90613879565b60405180910390fd5b6124906000838361222f565b6001600360008473ffffffffffffffffffffffffffffffffffffffff1673ffffffffffffffffffffffffffffffffffffffff16815260200190815260200160002060008282546124e09190613536565b92505081905550816002600083815260200190815260200160002060006101000a81548173ffffffffffffffffffffffffffffffffffffffff021916908373ffffffffffffffffffffffffffffffffffffffff160217905550808273ffffffffffffffffffffffffffffffffffffffff16600073ffffffffffffffffffffffffffffffffffffffff167fddf252ad1be2c89b69c2b068fc378daa952ba7f163c4a11628f55a4df523b3ef60405160405180910390a45050565b600080823b905060008111915050919050565b8280546125b890612e50565b90600052602060002090601f0160209004810192826125da5760008555612621565b82601f106125f357805160ff1916838001178555612621565b82800160010185558215612621579182015b82811115612620578251825591602001919060010190612605565b5b50905061262e9190612632565b5090565b5b8082111561264b576000816000905550600101612633565b5090565b6000604051905090565b600080fd5b600080fd5b60007fffffffff0000000000000000000000000000000000000000000000000000000082169050919050565b61269881612663565b81146126a357600080fd5b50565b6000813590506126b58161268f565b92915050565b6000602082840312156126d1576126d0612659565b5b60006126df848285016126a6565b91505092915050565b60008115159050919050565b6126fd816126e8565b82525050565b600060208201905061271860008301846126f4565b92915050565b600080fd5b600080fd5b6000601f19601f8301169050919050565b7f4e487b7100000000000000000000000000000000000000000000000000000000600052604160045260246000fd5b61277182612728565b810181811067ffffffffffffffff821117156127905761278f612739565b5b80604052505050565b60006127a361264f565b90506127af8282612768565b919050565b600067ffffffffffffffff8211156127cf576127ce612739565b5b6127d882612728565b9050602081019050919050565b82818337600083830152505050565b6000612807612802846127b4565b612799565b90508281526020810184848401111561282357612822612723565b5b61282e8482856127e5565b509392505050565b600082601f83011261284b5761284a61271e565b5b813561285b8482602086016127f4565b91505092915050565b6000819050919050565b61287781612864565b811461288257600080fd5b50565b6000813590506128948161286e565b92915050565b600080604083850312156128b1576128b0612659565b5b600083013567ffffffffffffffff8111156128cf576128ce61265e565b5b6128db85828601612836565b92505060206128ec85828601612885565b9150509250929050565b600081519050919050565b600082825260208201905092915050565b60005b83811015612930578082015181840152602081019050612915565b8381111561293f576000848401525b50505050565b6000612950826128f6565b61295a8185612901565b935061296a818560208601612912565b61297381612728565b840191505092915050565b600060208201905081810360008301526129988184612945565b905092915050565b6000602082840312156129b6576129b5612659565b5b60006129c484828501612885565b91505092915050565b600073ffffffffffffffffffffffffffffffffffffffff82169050919050565b60006129f8826129cd565b9050919050565b612a08816129ed565b82525050565b6000602082019050612a2360008301846129ff565b92915050565b612a32816129ed565b8114612a3d57600080fd5b50565b600081359050612a4f81612a29565b92915050565b60008060408385031215612a6c57612a6b612659565b5b6000612a7a85828601612a40565b9250506020612a8b85828601612885565b9150509250929050565b600080600060608486031215612aae57612aad612659565b5b6000612abc86828701612a40565b9350506020612acd86828701612a40565b9250506040612ade86828701612885565b9150509250925092565b612af181612864565b82525050565b600060a0820190508181036000830152612b118188612945565b9050612b2060208301876129ff565b612b2d60408301866129ff565b612b3a6060830185612ae8565b612b4760808301846126f4565b9695505050505050565b600060208284031215612b6757612b66612659565b5b6000612b7584828501612a40565b91505092915050565b6000602082019050612b936000830184612ae8565b92915050565b612ba2816126e8565b8114612bad57600080fd5b50565b600081359050612bbf81612b99565b92915050565b60008060408385031215612bdc57612bdb612659565b5b6000612bea85828601612a40565b9250506020612bfb85828601612bb0565b9150509250929050565b60008060408385031215612c1c57612c1b612659565b5b6000612c2a85828601612885565b9250506020612c3b85828601612885565b9150509250929050565b600067ffffffffffffffff821115612c6057612c5f612739565b5b612c6982612728565b9050602081019050919050565b6000612c89612c8484612c45565b612799565b905082815260208101848484011115612ca557612ca4612723565b5b612cb08482856127e5565b509392505050565b600082601f830112612ccd57612ccc61271e565b5b8135612cdd848260208601612c76565b91505092915050565b60008060008060808587031215612d0057612cff612659565b5b6000612d0e87828801612a40565b9450506020612d1f87828801612a40565b9350506040612d3087828801612885565b925050606085013567ffffffffffffffff811115612d5157612d5061265e565b5b612d5d87828801612cb8565b91505092959194509250565b60008060408385031215612d8057612d7f612659565b5b6000612d8e85828601612a40565b9250506020612d9f85828601612a40565b9150509250929050565b7f4e487b7100000000000000000000000000000000000000000000000000000000600052601160045260246000fd5b6000612de382612864565b91507fffffffffffffffffffffffffffffffffffffffffffffffffffffffffffffffff821415612e1657612e15612da9565b5b600182019050919050565b7f4e487b7100000000000000000000000000000000000000000000000000000000600052602260045260246000fd5b60006002820490506001821680612e6857607f821691505b60208210811415612e7c57612e7b612e21565b5b50919050565b7f4552433732313a20617070726f76656420717565727920666f72206e6f6e657860008201527f697374656e7420746f6b656e0000000000000000000000000000000000000000602082015250565b6000612ede602c83612901565b9150612ee982612e82565b604082019050919050565b60006020820190508181036000830152612f0d81612ed1565b9050919050565b7f4552433732313a20617070726f76616c20746f2063757272656e74206f776e6560008201527f7200000000000000000000000000000000000000000000000000000000000000602082015250565b6000612f70602183612901565b9150612f7b82612f14565b604082019050919050565b60006020820190508181036000830152612f9f81612f63565b9050919050565b7f4552433732313a20617070726f76652063616c6c6572206973206e6f74206f7760008201527f6e6572206e6f7220617070726f76656420666f7220616c6c0000000000000000602082015250565b6000613002603883612901565b915061300d82612fa6565b604082019050919050565b6000602082019050818103600083015261303181612ff5565b9050919050565b7f4552433732313a207472616e736665722063616c6c6572206973206e6f74206f60008201527f776e6572206e6f7220617070726f766564000000000000000000000000000000602082015250565b6000613094603183612901565b915061309f82613038565b604082019050919050565b600060208201905081810360008301526130c381613087565b9050919050565b7f4552433732313a206f776e657220717565727920666f72206e6f6e657869737460008201527f656e7420746f6b656e0000000000000000000000000000000000000000000000602082015250565b6000613126602983612901565b9150613131826130ca565b604082019050919050565b6000602082019050818103600083015261315581613119565b9050919050565b7f4552433732313a2062616c616e636520717565727920666f7220746865207a6560008201527f726f206164647265737300000000000000000000000000000000000000000000602082015250565b60006131b8602a83612901565b91506131c38261315c565b604082019050919050565b600060208201905081810360008301526131e7816131ab565b9050919050565b7f4552433732313a20617070726f766520746f2063616c6c657200000000000000600082015250565b6000613224601983612901565b915061322f826131ee565b602082019050919050565b6000602082019050818103600083015261325381613217565b9050919050565b7f4552433732314d657461646174613a2055524920717565727920666f72206e6f60008201527f6e6578697374656e7420746f6b656e0000000000000000000000000000000000602082015250565b60006132b6602f83612901565b91506132c18261325a565b604082019050919050565b600060208201905081810360008301526132e5816132a9565b9050919050565b600081905092915050565b6000613302826128f6565b61330c81856132ec565b935061331c818560208601612912565b80840191505092915050565b600061333482856132f7565b915061334082846132f7565b91508190509392505050565b7f4552433732313a206f70657261746f7220717565727920666f72206e6f6e657860008201527f697374656e7420746f6b656e0000000000000000000000000000000000000000602082015250565b60006133a8602c83612901565b91506133b38261334c565b604082019050919050565b600060208201905081810360008301526133d78161339b565b9050919050565b7f4552433732313a207472616e73666572206f6620746f6b656e2074686174206960008201527f73206e6f74206f776e0000000000000000000000000000000000000000000000602082015250565b600061343a602983612901565b9150613445826133de565b604082019050919050565b600060208201905081810360008301526134698161342d565b9050919050565b7f4552433732313a207472616e7366657220746f20746865207a65726f2061646460008201527f7265737300000000000000000000000000000000000000000000000000000000602082015250565b60006134cc602483612901565b91506134d782613470565b604082019050919050565b600060208201905081810360008301526134fb816134bf565b9050919050565b600061350d82612864565b915061351883612864565b92508282101561352b5761352a612da9565b5b828203905092915050565b600061354182612864565b915061354c83612864565b9250827fffffffffffffffffffffffffffffffffffffffffffffffffffffffffffffffff0382111561358157613580612da9565b5b828201905092915050565b7f4552433732313a207472616e7366657220746f206e6f6e20455243373231526560008201527f63656976657220696d706c656d656e7465720000000000000000000000000000602082015250565b60006135e8603283612901565b91506135f38261358c565b604082019050919050565b60006020820190508181036000830152613617816135db565b9050919050565b7f4e487b7100000000000000000000000000000000000000000000000000000000600052601260045260246000fd5b600061365882612864565b915061366383612864565b9250826136735761367261361e565b5b828204905092915050565b600061368982612864565b915061369483612864565b9250826136a4576136a361361e565b5b828206905092915050565b7f4e487b7100000000000000000000000000000000000000000000000000000000600052603260045260246000fd5b600081519050919050565b600082825260208201905092915050565b6000613705826136de565b61370f81856136e9565b935061371f818560208601612912565b61372881612728565b840191505092915050565b600060808201905061374860008301876129ff565b61375560208301866129ff565b6137626040830185612ae8565b818103606083015261377481846136fa565b905095945050505050565b60008151905061378e8161268f565b92915050565b6000602082840312156137aa576137a9612659565b5b60006137b88482850161377f565b91505092915050565b7f4552433732313a206d696e7420746f20746865207a65726f2061646472657373600082015250565b60006137f7602083612901565b9150613802826137c1565b602082019050919050565b60006020820190508181036000830152613826816137ea565b9050919050565b7f4552433732313a20746f6b656e20616c7265616479206d696e74656400000000600082015250565b6000613863601c83612901565b915061386e8261382d565b602082019050919050565b6000602082019050818103600083015261389281613856565b905091905056fea2646970667358221220abf8da4035ca276236361e1232f7e5482ecb7febe956c799ed0ef2b9ba7d6cb864736f6c63430008090033",
  "immutableReferences": {},
  "source": "// SPDX-License-Identifier: MIT\npragma solidity >=0.8.0;\n// pragma abicoder v2;\n\n// import ERC721 iterface\n// import './ERC721.sol';\nimport '@openzeppelin/contracts/token/ERC721/ERC721.sol';\n\n// CryptoBoys smart contract inherits ERC721 interface\ncontract HMNFT is ERC721 {\n    struct Metadata {\n        string name;\n        address payable minter;\n        address payable owner;\n        uint256 price;\n        bool forSale;\n    }\n    uint256 counter;\n    mapping(uint256 => Metadata) metadata;\n\n    constructor(string memory name, string memory symbol) ERC721(name, symbol) {\n        counter++;\n    }\n\n    modifier hasItem(uint256 _tokenId) {\n        require(msg.sender != address(0));\n        require(_exists(_tokenId));\n        _;\n    }\n    modifier noItem() {\n        require(msg.sender != address(0));\n        require(!_exists(counter));\n        _;\n    }\n\n    function mint(string memory name, uint256 price) external noItem {\n        _safeMint(msg.sender, counter);\n        metadata[counter] = Metadata(\n            name,\n            payable(msg.sender),\n            payable(msg.sender),\n            price,\n            false\n        );\n        counter++;\n    }\n\n    // returns (uint256, string memory)\n    function getItem(uint256 _tokenId)\n        external\n        view\n        hasItem(_tokenId)\n        returns (\n            string memory name,\n            address minter,\n            address owner,\n            uint256 price,\n            bool forSale\n        )\n    {\n        // Metadata memory item = metadata[_tokenId];\n        // return (item.price, item.name);\n        Metadata memory item = metadata[_tokenId];\n        name = item.name;\n        minter = item.minter;\n        owner = item.owner;\n        price = item.price;\n        forSale = item.forSale;\n    }\n\n    function tokenAvailable(uint256 _tokenId) public view returns (bool) {\n        return _exists(_tokenId);\n    }\n\n    function buy(uint256 _tokenId) public payable hasItem(_tokenId) {\n        require(ownerOf(_tokenId) != msg.sender);\n        Metadata memory item = metadata[_tokenId];\n        require(msg.value >= item.price);\n        _transfer(item.owner, msg.sender, _tokenId);\n        address payable sendTo = item.owner;\n        sendTo.transfer(msg.value);\n        item.owner = payable(msg.sender);\n        metadata[_tokenId] = item;\n    }\n\n    function changePrice(uint256 _tokenId, uint256 price)\n        public\n        hasItem(_tokenId)\n    {\n        require(msg.sender == ownerOf(_tokenId));\n        Metadata memory item = metadata[_tokenId];\n        item.price = price;\n        metadata[_tokenId] = item;\n    }\n\n    function toggleForSale(uint256 _tokenId) public hasItem(_tokenId) {\n        require(msg.sender == ownerOf(_tokenId));\n        Metadata memory item = metadata[_tokenId];\n        item.forSale = !item.forSale;\n        metadata[_tokenId] = item;\n    }\n}\n",
  "sourcePath": "/Volumes/3TB-MAC/work/work-blockchain/0.hm-token/hm_token_generator/token/contracts/HMNFT.sol",
  "compiler": {
    "name": "solc",
    "version": "0.8.9+commit.e5eed63a.Emscripten.clang"
  },
  "schemaVersion": "3.4.1",
  "updatedAt": "2021-10-12T09:47:01.506Z",
  "devdoc": {
    "kind": "dev",
    "methods": {
      "approve(address,uint256)": {
        "details": "See {IERC721-approve}."
      },
      "balanceOf(address)": {
        "details": "See {IERC721-balanceOf}."
      },
      "getApproved(uint256)": {
        "details": "See {IERC721-getApproved}."
      },
      "isApprovedForAll(address,address)": {
        "details": "See {IERC721-isApprovedForAll}."
      },
      "name()": {
        "details": "See {IERC721Metadata-name}."
      },
      "ownerOf(uint256)": {
        "details": "See {IERC721-ownerOf}."
      },
      "safeTransferFrom(address,address,uint256)": {
        "details": "See {IERC721-safeTransferFrom}."
      },
      "safeTransferFrom(address,address,uint256,bytes)": {
        "details": "See {IERC721-safeTransferFrom}."
      },
      "setApprovalForAll(address,bool)": {
        "details": "See {IERC721-setApprovalForAll}."
      },
      "supportsInterface(bytes4)": {
        "details": "See {IERC165-supportsInterface}."
      },
      "symbol()": {
        "details": "See {IERC721Metadata-symbol}."
      },
      "tokenURI(uint256)": {
        "details": "See {IERC721Metadata-tokenURI}."
      },
      "transferFrom(address,address,uint256)": {
        "details": "See {IERC721-transferFrom}."
      }
    },
    "version": 1
  },
  "userdoc": {
    "kind": "user",
    "methods": {},
    "version": 1
  }
}